{
  "_format": "hh-sol-artifact-1",
  "contractName": "Dgdrive",
  "sourceName": "contracts/Dgdrive.sol",
  "abi": [
    {
      "anonymous": false,
      "inputs": [
        {
          "indexed": true,
          "internalType": "address",
          "name": "owner",
          "type": "address"
        },
        {
          "indexed": true,
          "internalType": "address",
          "name": "grantee",
          "type": "address"
        }
      ],
      "name": "AccessGranted",
      "type": "event"
    },
    {
      "anonymous": false,
      "inputs": [
        {
          "indexed": true,
          "internalType": "address",
          "name": "owner",
          "type": "address"
        },
        {
          "indexed": true,
          "internalType": "address",
          "name": "revokee",
          "type": "address"
        }
      ],
      "name": "AccessRevoked",
      "type": "event"
    },
    {
      "anonymous": false,
      "inputs": [
        {
          "indexed": true,
          "internalType": "address",
          "name": "user",
          "type": "address"
        },
        {
          "indexed": false,
          "internalType": "string",
          "name": "url",
          "type": "string"
        }
      ],
      "name": "DataAdded",
      "type": "event"
    },
    {
      "inputs": [
        {
          "internalType": "address",
          "name": "",
          "type": "address"
        },
        {
          "internalType": "uint256",
          "name": "",
          "type": "uint256"
        }
      ],
      "name": "accessList",
      "outputs": [
        {
          "internalType": "address",
          "name": "user",
          "type": "address"
        },
        {
          "internalType": "bool",
          "name": "access",
          "type": "bool"
        }
      ],
      "stateMutability": "view",
      "type": "function"
    },
    {
      "inputs": [
        {
          "internalType": "address",
          "name": "_user",
          "type": "address"
        },
        {
          "internalType": "string",
          "name": "url",
          "type": "string"
        }
      ],
      "name": "add",
      "outputs": [],
      "stateMutability": "nonpayable",
      "type": "function"
    },
    {
      "inputs": [
        {
          "internalType": "address",
          "name": "newUser",
          "type": "address"
        }
      ],
      "name": "allowUser",
      "outputs": [],
      "stateMutability": "nonpayable",
      "type": "function"
    },
    {
      "inputs": [
        {
          "internalType": "address",
          "name": "user",
          "type": "address"
        }
      ],
      "name": "disAllowUser",
      "outputs": [],
      "stateMutability": "nonpayable",
      "type": "function"
    },
    {
      "inputs": [
        {
          "internalType": "address",
          "name": "_user",
          "type": "address"
        }
      ],
      "name": "displayData",
      "outputs": [
        {
          "internalType": "string[]",
          "name": "",
          "type": "string[]"
        }
      ],
      "stateMutability": "view",
      "type": "function"
    },
    {
      "inputs": [],
      "name": "shareAccess",
      "outputs": [
        {
          "components": [
            {
              "internalType": "address",
              "name": "user",
              "type": "address"
            },
            {
              "internalType": "bool",
              "name": "access",
              "type": "bool"
            }
          ],
          "internalType": "struct Dgdrive.Access[]",
          "name": "",
          "type": "tuple[]"
        }
      ],
      "stateMutability": "view",
      "type": "function"
    }
  ],
  "bytecode": "0x608060405234801561001057600080fd5b506116a0806100206000396000f3fe608060405234801561001057600080fd5b50600436106100625760003560e01c806310f55fb11461006757806336d6da551461008357806370c2b4191461009f578063771c456f146100d057806394ba3b3f146100ec578063bc8bef811461011c575b600080fd5b610081600480360381019061007c9190610d6c565b61013a565b005b61009d60048036038101906100989190610edf565b6103b4565b005b6100b960048036038101906100b49190610f71565b610477565b6040516100c7929190610fdb565b60405180910390f35b6100ea60048036038101906100e59190610d6c565b6104e1565b005b61010660048036038101906101019190610d6c565b6109db565b6040516101139190611145565b60405180910390f35b610124610bf1565b6040516101319190611263565b60405180910390f35b6000600160003373ffffffffffffffffffffffffffffffffffffffff1673ffffffffffffffffffffffffffffffffffffffff16815260200190815260200160002060008373ffffffffffffffffffffffffffffffffffffffff1673ffffffffffffffffffffffffffffffffffffffff16815260200190815260200160002060006101000a81548160ff02191690831515021790555060005b600260003373ffffffffffffffffffffffffffffffffffffffff1673ffffffffffffffffffffffffffffffffffffffff168152602001908152602001600020805490508110156103b0578173ffffffffffffffffffffffffffffffffffffffff16600260003373ffffffffffffffffffffffffffffffffffffffff1673ffffffffffffffffffffffffffffffffffffffff168152602001908152602001600020828154811061028457610283611285565b5b9060005260206000200160000160009054906101000a900473ffffffffffffffffffffffffffffffffffffffff1673ffffffffffffffffffffffffffffffffffffffff16036103a3576000600260003373ffffffffffffffffffffffffffffffffffffffff1673ffffffffffffffffffffffffffffffffffffffff16815260200190815260200160002082815481106103205761031f611285565b5b9060005260206000200160000160146101000a81548160ff0219169083151502179055508173ffffffffffffffffffffffffffffffffffffffff163373ffffffffffffffffffffffffffffffffffffffff167f825c8be24eb0df19500f63e86c29e7d0d951e73056b889b891d85e40938d9b6e60405160405180910390a36103b0565b80806001019150506101d2565b5050565b6000808373ffffffffffffffffffffffffffffffffffffffff1673ffffffffffffffffffffffffffffffffffffffff1681526020019081526020016000208190806001815401808255809150506001900390600052602060002001600090919091909150908161042491906114c0565b508173ffffffffffffffffffffffffffffffffffffffff167f4a38af5210d98524692cc33078e70f9daeb8b199bfdec0b4c06f150817ddad768260405161046b91906115dc565b60405180910390a25050565b6002602052816000526040600020818154811061049357600080fd5b90600052602060002001600091509150508060000160009054906101000a900473ffffffffffffffffffffffffffffffffffffffff16908060000160149054906101000a900460ff16905082565b60018060003373ffffffffffffffffffffffffffffffffffffffff1673ffffffffffffffffffffffffffffffffffffffff16815260200190815260200160002060008373ffffffffffffffffffffffffffffffffffffffff1673ffffffffffffffffffffffffffffffffffffffff16815260200190815260200160002060006101000a81548160ff021916908315150217905550600360003373ffffffffffffffffffffffffffffffffffffffff1673ffffffffffffffffffffffffffffffffffffffff16815260200190815260200160002060008273ffffffffffffffffffffffffffffffffffffffff1673ffffffffffffffffffffffffffffffffffffffff16815260200190815260200160002060009054906101000a900460ff16156107ec5760005b600260003373ffffffffffffffffffffffffffffffffffffffff1673ffffffffffffffffffffffffffffffffffffffff168152602001908152602001600020805490508110156107e6578173ffffffffffffffffffffffffffffffffffffffff16600260003373ffffffffffffffffffffffffffffffffffffffff1673ffffffffffffffffffffffffffffffffffffffff16815260200190815260200160002082815481106106b9576106b8611285565b5b9060005260206000200160000160009054906101000a900473ffffffffffffffffffffffffffffffffffffffff1673ffffffffffffffffffffffffffffffffffffffff16036107d9576001600260003373ffffffffffffffffffffffffffffffffffffffff1673ffffffffffffffffffffffffffffffffffffffff168152602001908152602001600020828154811061075557610754611285565b5b9060005260206000200160000160146101000a81548160ff0219169083151502179055508173ffffffffffffffffffffffffffffffffffffffff163373ffffffffffffffffffffffffffffffffffffffff167f9f520b3bfc56d06f7065d10b4683b3f57ac8895d5026cd176dee95ce1454cb8d60405160405180910390a3506109d8565b8080600101915050610607565b506109d7565b600260003373ffffffffffffffffffffffffffffffffffffffff1673ffffffffffffffffffffffffffffffffffffffff16815260200190815260200160002060405180604001604052808373ffffffffffffffffffffffffffffffffffffffff168152602001600115158152509080600181540180825580915050600190039060005260206000200160009091909190915060008201518160000160006101000a81548173ffffffffffffffffffffffffffffffffffffffff021916908373ffffffffffffffffffffffffffffffffffffffff16021790555060208201518160000160146101000a81548160ff02191690831515021790555050506001600360003373ffffffffffffffffffffffffffffffffffffffff1673ffffffffffffffffffffffffffffffffffffffff16815260200190815260200160002060008373ffffffffffffffffffffffffffffffffffffffff1673ffffffffffffffffffffffffffffffffffffffff16815260200190815260200160002060006101000a81548160ff0219169083151502179055508073ffffffffffffffffffffffffffffffffffffffff163373ffffffffffffffffffffffffffffffffffffffff167f9f520b3bfc56d06f7065d10b4683b3f57ac8895d5026cd176dee95ce1454cb8d60405160405180910390a35b5b50565b60603373ffffffffffffffffffffffffffffffffffffffff168273ffffffffffffffffffffffffffffffffffffffff161480610a9d5750600160008373ffffffffffffffffffffffffffffffffffffffff1673ffffffffffffffffffffffffffffffffffffffff16815260200190815260200160002060003373ffffffffffffffffffffffffffffffffffffffff1673ffffffffffffffffffffffffffffffffffffffff16815260200190815260200160002060009054906101000a900460ff165b610adc576040517f08c379a0000000000000000000000000000000000000000000000000000000008152600401610ad39061164a565b60405180910390fd5b6000808373ffffffffffffffffffffffffffffffffffffffff1673ffffffffffffffffffffffffffffffffffffffff168152602001908152602001600020805480602002602001604051908101604052809291908181526020016000905b82821015610be6578382906000526020600020018054610b59906112e3565b80601f0160208091040260200160405190810160405280929190818152602001828054610b85906112e3565b8015610bd25780601f10610ba757610100808354040283529160200191610bd2565b820191906000526020600020905b815481529060010190602001808311610bb557829003601f168201915b505050505081526020019060010190610b3a565b505050509050919050565b6060600260003373ffffffffffffffffffffffffffffffffffffffff1673ffffffffffffffffffffffffffffffffffffffff168152602001908152602001600020805480602002602001604051908101604052809291908181526020016000905b82821015610cf1578382906000526020600020016040518060400160405290816000820160009054906101000a900473ffffffffffffffffffffffffffffffffffffffff1673ffffffffffffffffffffffffffffffffffffffff1673ffffffffffffffffffffffffffffffffffffffff1681526020016000820160149054906101000a900460ff16151515158152505081526020019060010190610c52565b50505050905090565b6000604051905090565b600080fd5b600080fd5b600073ffffffffffffffffffffffffffffffffffffffff82169050919050565b6000610d3982610d0e565b9050919050565b610d4981610d2e565b8114610d5457600080fd5b50565b600081359050610d6681610d40565b92915050565b600060208284031215610d8257610d81610d04565b5b6000610d9084828501610d57565b91505092915050565b600080fd5b600080fd5b6000601f19601f8301169050919050565b7f4e487b7100000000000000000000000000000000000000000000000000000000600052604160045260246000fd5b610dec82610da3565b810181811067ffffffffffffffff82111715610e0b57610e0a610db4565b5b80604052505050565b6000610e1e610cfa565b9050610e2a8282610de3565b919050565b600067ffffffffffffffff821115610e4a57610e49610db4565b5b610e5382610da3565b9050602081019050919050565b82818337600083830152505050565b6000610e82610e7d84610e2f565b610e14565b905082815260208101848484011115610e9e57610e9d610d9e565b5b610ea9848285610e60565b509392505050565b600082601f830112610ec657610ec5610d99565b5b8135610ed6848260208601610e6f565b91505092915050565b60008060408385031215610ef657610ef5610d04565b5b6000610f0485828601610d57565b925050602083013567ffffffffffffffff811115610f2557610f24610d09565b5b610f3185828601610eb1565b9150509250929050565b6000819050919050565b610f4e81610f3b565b8114610f5957600080fd5b50565b600081359050610f6b81610f45565b92915050565b60008060408385031215610f8857610f87610d04565b5b6000610f9685828601610d57565b9250506020610fa785828601610f5c565b9150509250929050565b610fba81610d2e565b82525050565b60008115159050919050565b610fd581610fc0565b82525050565b6000604082019050610ff06000830185610fb1565b610ffd6020830184610fcc565b9392505050565b600081519050919050565b600082825260208201905092915050565b6000819050602082019050919050565b600081519050919050565b600082825260208201905092915050565b60005b8381101561106a57808201518184015260208101905061104f565b60008484015250505050565b600061108182611030565b61108b818561103b565b935061109b81856020860161104c565b6110a481610da3565b840191505092915050565b60006110bb8383611076565b905092915050565b6000602082019050919050565b60006110db82611004565b6110e5818561100f565b9350836020820285016110f785611020565b8060005b85811015611133578484038952815161111485826110af565b945061111f836110c3565b925060208a019950506001810190506110fb565b50829750879550505050505092915050565b6000602082019050818103600083015261115f81846110d0565b905092915050565b600081519050919050565b600082825260208201905092915050565b6000819050602082019050919050565b61119c81610d2e565b82525050565b6111ab81610fc0565b82525050565b6040820160008201516111c76000850182611193565b5060208201516111da60208501826111a2565b50505050565b60006111ec83836111b1565b60408301905092915050565b6000602082019050919050565b600061121082611167565b61121a8185611172565b935061122583611183565b8060005b8381101561125657815161123d88826111e0565b9750611248836111f8565b925050600181019050611229565b5085935050505092915050565b6000602082019050818103600083015261127d8184611205565b905092915050565b7f4e487b7100000000000000000000000000000000000000000000000000000000600052603260045260246000fd5b7f4e487b7100000000000000000000000000000000000000000000000000000000600052602260045260246000fd5b600060028204905060018216806112fb57607f821691505b60208210810361130e5761130d6112b4565b5b50919050565b60008190508160005260206000209050919050565b60006020601f8301049050919050565b600082821b905092915050565b6000600883026113767fffffffffffffffffffffffffffffffffffffffffffffffffffffffffffffffff82611339565b6113808683611339565b95508019841693508086168417925050509392505050565b6000819050919050565b60006113bd6113b86113b384610f3b565b611398565b610f3b565b9050919050565b6000819050919050565b6113d7836113a2565b6113eb6113e3826113c4565b848454611346565b825550505050565b600090565b6114006113f3565b61140b8184846113ce565b505050565b5b8181101561142f576114246000826113f8565b600181019050611411565b5050565b601f8211156114745761144581611314565b61144e84611329565b8101602085101561145d578190505b61147161146985611329565b830182611410565b50505b505050565b600082821c905092915050565b600061149760001984600802611479565b1980831691505092915050565b60006114b08383611486565b9150826002028217905092915050565b6114c982611030565b67ffffffffffffffff8111156114e2576114e1610db4565b5b6114ec82546112e3565b6114f7828285611433565b600060209050601f83116001811461152a5760008415611518578287015190505b61152285826114a4565b86555061158a565b601f19841661153886611314565b60005b828110156115605784890151825560018201915060208501945060208101905061153b565b8683101561157d5784890151611579601f891682611486565b8355505b6001600288020188555050505b505050505050565b600082825260208201905092915050565b60006115ae82611030565b6115b88185611592565b93506115c881856020860161104c565b6115d181610da3565b840191505092915050565b600060208201905081810360008301526115f681846115a3565b905092915050565b7f596f7520646f6e27742068617665206163636573730000000000000000000000600082015250565b6000611634601583611592565b915061163f826115fe565b602082019050919050565b6000602082019050818103600083015261166381611627565b905091905056fea264697066735822122083a97b6ee5d9512c165fe9af32b2e0e41b769f0bd018e0268f2d26894874a0cc64736f6c63430008180033",
  "linkReferences": {},
  "deployedLinkReferences": {}
}